{"abi":[{"type":"function","name":"deploy","inputs":[{"name":"salt","type":"bytes32","internalType":"bytes32"},{"name":"initCode","type":"bytes","internalType":"bytes"}],"outputs":[{"name":"collector","type":"address","internalType":"address"}],"stateMutability":"nonpayable"},{"type":"error","name":"DeployFailed","inputs":[]}],"bytecode":{"object":"0x608080604052346100155760f8908161001a8239f35b5f80fdfe608060405260043610156010575f80fd5b5f3560e01c63cdcb760a146022575f80fd5b3460905760403660031901126090576001600160401b036024358181116090573660238201121560905780600401359182116090573660248383010111609057608c916024607292016004356094565b6040516001600160a01b0390911681529081906020820190565b0390f35b5f80fd5b9190816040519182375ff5906001600160a01b0382161560b057565b60405163b4f5411160e01b8152600490fdfea2646970667358221220703145ac9c426d78fb288612658a7c936afaaaec61f6a1cf56f59c0a71d898dd64736f6c63430008180033","linkReferences":{}},"methodIdentifiers":{"deploy(bytes32,bytes)":"cdcb760a"},"id":19}