{"abi":[{"type":"function","name":"deploy","inputs":[{"name":"salt","type":"bytes32","internalType":"bytes32"},{"name":"initCode","type":"bytes","internalType":"bytes"}],"outputs":[{"name":"collector","type":"address","internalType":"address"}],"stateMutability":"nonpayable"},{"type":"error","name":"DeployFailed","inputs":[]}],"bytecode":{"object":"0x6080806040523460145760fc90816100198239f35b5f80fdfe608060405260043610156010575f80fd5b5f3560e01c63cdcb760a146022575f80fd5b3460975760403660031901126097576024356001600160401b038111609757366023820112156097576004810135906001600160401b0382116097573660248383010111609757609391602460799201600435609b565b6040516001600160a01b0390911681529081906020820190565b0390f35b5f80fd5b9190816040519182375ff5906001600160a01b0382161560b757565b63b4f5411160e01b5f5260045ffdfea264697066735822122045ff52336408c80086153563392128d9161deca319846e697d190aa5b604d54264736f6c63430008230033","linkReferences":{}},"methodIdentifiers":{"deploy(bytes32,bytes)":"cdcb760a"},"id":23}