{"abi":[{"type":"constructor","inputs":[{"name":"vaultSlotTemplate_","type":"address","internalType":"address"}],"stateMutability":"nonpayable"},{"type":"function","name":"deployVaultSlot","inputs":[{"name":"vault","type":"address","internalType":"address payable"},{"name":"salt","type":"bytes32","internalType":"bytes32"}],"outputs":[{"name":"vaultSlot","type":"address","internalType":"address"}],"stateMutability":"nonpayable"},{"type":"function","name":"vaultSlotTemplate","inputs":[],"outputs":[{"name":"","type":"address","internalType":"address"}],"stateMutability":"view"},{"type":"event","name":"XcashVaultSlotDeployed","inputs":[{"name":"vaultSlot","type":"address","indexed":true,"internalType":"address"},{"name":"vault","type":"address","indexed":true,"internalType":"address"},{"name":"salt","type":"bytes32","indexed":true,"internalType":"bytes32"}],"anonymous":false},{"type":"error","name":"CloneArgumentsTooLong","inputs":[]},{"type":"error","name":"Create2EmptyBytecode","inputs":[]},{"type":"error","name":"FailedDeployment","inputs":[]},{"type":"error","name":"InsufficientBalance","inputs":[{"name":"balance","type":"uint256","internalType":"uint256"},{"name":"needed","type":"uint256","internalType":"uint256"}]},{"type":"error","name":"InvalidVaultSlotTemplate","inputs":[]},{"type":"error","name":"ZeroVault","inputs":[]}],"bytecode":{"object":"0x60a06040523461009357610b466020813803918261001c81610098565b93849283398101031261009357516001600160a01b038116810361009357803f61061761004b60208201610098565b818152602081019161052f8339519020036100825760805260405161045b90816100d4823960805181818161018301526103c70152f35b630226e88160e21b60005260046000fd5b600080fd5b6040519190601f01601f191682016001600160401b038111838210176100bd57604052565b634e487b7160e01b600052604160045260246000fdfe608080604052600436101561001357600080fd5b60003560e01c9081632e802b1f1461037e5750637b8ef4f31461003557600080fd5b346103795760407ffffffffffffffffffffffffffffffffffffffffffffffffffffffffffffffffc3601126103795760043573ffffffffffffffffffffffffffffffffffffffff81168082036103795760243591811561034f577fffffffffffffffffffffffffffffffffffffffff0000000000000000000000006040519160601b166020820152601481526100cc6034826103eb565b615fd381511161032557805190602d82018092116102f657604051907fffff00000000000000000000000000000000000000000000000000000000000060208301937f6100000000000000000000000000000000000000000000000000000000000000855260f01b1660218301527f3d81600a3d39f3363d3d373d3d3d363d7300000000000000000000000000000060238301527fffffffffffffffffffffffffffffffffffffffff0000000000000000000000007f000000000000000000000000000000000000000000000000000000000000000060601b1660348301527f5af43d82803e903d91602b57fd5bf3000000000000000000000000000000000060488301528181519160005b8381106102de5750508061021d926057920160008382015203017fffffffffffffffffffffffffffffffffffffffffffffffffffffffffffffffe081018352826103eb565b8051156102b45773ffffffffffffffffffffffffffffffffffffffff91849151906000f51680156102795760209260405192827f36ed5437aaaf529d3ea60919a09c88ad91c661b5ee3c773497513c1c4fd2af4d600080a48152f35b3d6102a8577fb06ebf3d0000000000000000000000000000000000000000000000000000000060005260046000fd5b6040513d6000823e3d90fd5b7f4ca249dc0000000000000000000000000000000000000000000000000000000060005260046000fd5b602082820181015160578784010152859350016101d8565b7f4e487b7100000000000000000000000000000000000000000000000000000000600052601160045260246000fd5b7f942890540000000000000000000000000000000000000000000000000000000060005260046000fd5b7fc68fcf820000000000000000000000000000000000000000000000000000000060005260046000fd5b600080fd5b346103795760007ffffffffffffffffffffffffffffffffffffffffffffffffffffffffffffffffc3601126103795760209073ffffffffffffffffffffffffffffffffffffffff7f0000000000000000000000000000000000000000000000000000000000000000168152f35b90601f7fffffffffffffffffffffffffffffffffffffffffffffffffffffffffffffffe0910116810190811067ffffffffffffffff82111761042c57604052565b7f4e487b7100000000000000000000000000000000000000000000000000000000600052604160045260246000fd60806040526004361015610023575b361561001957600080fd5b6100216103a0565b005b60003560e01c806306ec16f81461009a5763fbfa77cf0361000e57346100955760007ffffffffffffffffffffffffffffffffffffffffffffffffffffffffffffffffc360112610095576020610077610288565b73ffffffffffffffffffffffffffffffffffffffff60405191168152f35b600080fd5b346100955760207ffffffffffffffffffffffffffffffffffffffffffffffffffffffffffffffffc3601126100955760043573ffffffffffffffffffffffffffffffffffffffff8116810361009557610021906101cc565b90601f7fffffffffffffffffffffffffffffffffffffffffffffffffffffffffffffffe0910116810190811067ffffffffffffffff82111761013357604052565b7f4e487b7100000000000000000000000000000000000000000000000000000000600052604160045260246000fd5b67ffffffffffffffff811161013357601f017fffffffffffffffffffffffffffffffffffffffffffffffffffffffffffffffe01660200190565b3d156101c7573d906101ad82610162565b916101bb60405193846100f2565b82523d6000602084013e565b606090565b73ffffffffffffffffffffffffffffffffffffffff811661027d575047801561027a57600080808093817f585fb2e91ab2ff6f2d3a7377e4ec52a02413c430a7df78e2be5cd94152b0cfb96020604051848152a273ffffffffffffffffffffffffffffffffffffffff61023d610288565b165af161024861019c565b501561025057565b7f096dc0e10000000000000000000000000000000000000000000000000000000060005260046000fd5b50565b61028690610420565b565b303b7fffffffffffffffffffffffffffffffffffffffffffffffffffffffffffffffd381019081116103715760146102d86102c283610162565b926102d060405194856100f2565b808452610162565b917fffffffffffffffffffffffffffffffffffffffffffffffffffffffffffffffe06020820193013684378051602d84303c5103610347575160601c90811561031d57565b7fc68fcf820000000000000000000000000000000000000000000000000000000060005260046000fd5b7f53e347a80000000000000000000000000000000000000000000000000000000060005260046000fd5b7f4e487b7100000000000000000000000000000000000000000000000000000000600052601160045260246000fd5b3415610286576040513481527f4487f6d368546870956d80d81e8c5b42062dda412d9d9f9bf2d5a1cd2dc1bb7960203392a2600080808047817f585fb2e91ab2ff6f2d3a7377e4ec52a02413c430a7df78e2be5cd94152b0cfb96020604051848152a273ffffffffffffffffffffffffffffffffffffffff61023d610288565b6040517f70a0823100000000000000000000000000000000000000000000000000000000815230600482015273ffffffffffffffffffffffffffffffffffffffff821691602082602481865afa9182156105cf576000926105e0575b5081156105db576000809161048f610288565b8260405173ffffffffffffffffffffffffffffffffffffffff60208201937fa9059cbb000000000000000000000000000000000000000000000000000000008552166024820152866044820152604481526104eb6064826100f2565b51925af16104f761019c565b5015610573576040517f70a08231000000000000000000000000000000000000000000000000000000008152306004820152602081602481865afa9081156105cf5760009161059d575b506105735760207f585fb2e91ab2ff6f2d3a7377e4ec52a02413c430a7df78e2be5cd94152b0cfb991604051908152a2565b7ff27f64e40000000000000000000000000000000000000000000000000000000060005260046000fd5b90506020813d6020116105c7575b816105b8602093836100f2565b81010312610095575138610541565b3d91506105ab565b6040513d6000823e3d90fd5b505050565b90916020823d60201161060f575b816105fb602093836100f2565b8101031261060c575051903861047c565b80fd5b3d91506105ee56","linkReferences":{}},"methodIdentifiers":{"deployVaultSlot(address,bytes32)":"7b8ef4f3","vaultSlotTemplate()":"2e802b1f"},"id":25}