{"abi":[{"type":"constructor","inputs":[{"name":"depositTemplate_","type":"address","internalType":"address"}],"stateMutability":"nonpayable"},{"type":"function","name":"deployDepositSlot","inputs":[{"name":"vault","type":"address","internalType":"address payable"},{"name":"salt","type":"bytes32","internalType":"bytes32"}],"outputs":[{"name":"depositSlot","type":"address","internalType":"address"}],"stateMutability":"nonpayable"},{"type":"function","name":"depositTemplate","inputs":[],"outputs":[{"name":"","type":"address","internalType":"address"}],"stateMutability":"view"},{"type":"function","name":"predictDepositSlot","inputs":[{"name":"vault","type":"address","internalType":"address payable"},{"name":"salt","type":"bytes32","internalType":"bytes32"}],"outputs":[{"name":"","type":"address","internalType":"address"}],"stateMutability":"view"},{"type":"event","name":"XcashDepositSlotDeployed","inputs":[{"name":"depositSlot","type":"address","indexed":true,"internalType":"address"},{"name":"vault","type":"address","indexed":true,"internalType":"address"},{"name":"salt","type":"bytes32","indexed":true,"internalType":"bytes32"}],"anonymous":false},{"type":"error","name":"CloneArgumentsTooLong","inputs":[]},{"type":"error","name":"Create2EmptyBytecode","inputs":[]},{"type":"error","name":"FailedDeployment","inputs":[]},{"type":"error","name":"InsufficientBalance","inputs":[{"name":"balance","type":"uint256","internalType":"uint256"},{"name":"needed","type":"uint256","internalType":"uint256"}]},{"type":"error","name":"InvalidDepositTemplate","inputs":[]},{"type":"error","name":"ZeroDepositTemplate","inputs":[]},{"type":"error","name":"ZeroVault","inputs":[]}],"bytecode":{"object":"0x60a034609457601f6103ff38819003918201601f19168301916001600160401b03831184841017609857808492602094604052833981010312609457516001600160a01b03811680820360945715608557803b1560765760805260405161035290816100ad8239608051818181604f015260b30152f35b63778e470160e11b5f5260045ffd5b633b2b83fd60e01b5f5260045ffd5b5f80fd5b634e487b7160e01b5f52604160045260245ffdfe60806040526004361015610011575f80fd5b5f3560e01c806330cb994e146101185780634c46d74e146100825763d73832821461003a575f80fd5b3461007e575f36600319011261007e576040517f00000000000000000000000000000000000000000000000000000000000000006001600160a01b03168152602090f35b5f80fd5b3461007e57610090366101c3565b906001600160a01b03811615610109576020916100d76100b1600b93610220565b7f000000000000000000000000000000000000000000000000000000000000000061024a565b83815191012090604051916040830152838201523081520160ff8153605590206040516001600160a01b039091168152f35b636347e7c160e11b5f5260045ffd5b3461007e57610126366101c3565b906001600160a01b038116908115610109576100b161014491610220565b8051156101b45780516001600160a01b03918491906020015ff51680156101955760209260405192827f9e3d0c595a4c4ff8e1bc1d5a54ef89b632530512447efa94830cf0e27759a9285f80a48152f35b3d6101a95763b06ebf3d60e01b5f5260045ffd5b6040513d5f823e3d90fd5b631328927760e21b5f5260045ffd5b604090600319011261007e576004356001600160a01b038116810361007e579060243590565b601f909101601f19168101906001600160401b0382119082101761020c57604052565b634e487b7160e01b5f52604160045260245ffd5b60405160609190911b6001600160601b0319166020820152601481526102476034826101e9565b90565b90615fd381511161030d57805190602d82018092116102f957604051606160f81b60208281019190915260f09390931b6001600160f01b0319166021820152703d81600a3d39f3363d3d373d3d3d363d7360781b602382015260609390931b6001600160601b03191660348401526e5af43d82803e903d91602b57fd5bf360881b60488401528051610247926057928592918291018385015e81015f838201520301601f1981018352826101e9565b634e487b7160e01b5f52601160045260245ffd5b63250a241560e21b5f5260045ffdfea2646970667358221220b0caf986ef5c1485bc1a86bc25b752f712077d26c80acd8bb53096760b44c99a64736f6c63430008230033","linkReferences":{}},"methodIdentifiers":{"deployDepositSlot(address,bytes32)":"30cb994e","depositTemplate()":"d7383282","predictDepositSlot(address,bytes32)":"4c46d74e"},"id":23}