{"abi":[{"type":"fallback","stateMutability":"payable"},{"type":"receive","stateMutability":"payable"},{"type":"function","name":"collectERC20","inputs":[{"name":"token","type":"address","internalType":"address"}],"outputs":[{"name":"amount","type":"uint256","internalType":"uint256"}],"stateMutability":"nonpayable"},{"type":"function","name":"vault","inputs":[],"outputs":[{"name":"vault_","type":"address","internalType":"address payable"}],"stateMutability":"view"},{"type":"event","name":"ERC20Collected","inputs":[{"name":"token","type":"address","indexed":true,"internalType":"address"},{"name":"amount","type":"uint256","indexed":false,"internalType":"uint256"}],"anonymous":false},{"type":"event","name":"NativeDeposited","inputs":[{"name":"payer","type":"address","indexed":true,"internalType":"address"},{"name":"amount","type":"uint256","indexed":false,"internalType":"uint256"}],"anonymous":false},{"type":"error","name":"ERC20TransferFailed","inputs":[]},{"type":"error","name":"ForwardFailed","inputs":[]},{"type":"error","name":"InvalidVaultArgs","inputs":[]},{"type":"error","name":"ZeroAmount","inputs":[]},{"type":"error","name":"ZeroVault","inputs":[]}],"bytecode":{"object":"0x6080806040523460155761042f908161001a8239f35b5f80fdfe60808060405260043610156100af575b50361561007c57341561006d576040513481525f5160206103da5f395f51905f5260203392a25f8080806001600160a01b03610049610313565b1647905af16100566102e4565b501561005e57005b63096dc0e160e01b5f5260045ffd5b631f2a200560e01b5f5260045ffd5b341561006d576040513481525f5160206103da5f395f51905f5260203392a25f8080806001600160a01b03610049610313565b5f3560e01c9081631803977a14610101575063fbfa77cf146100d1575f61000f565b346100fd575f3660031901126100fd5760206100eb610313565b6040516001600160a01b039091168152f35b5f80fd5b346100fd5760203660031901126100fd576004356001600160a01b03811691908281036100fd576370a0823160e01b8252306004830152602082602481865afa918215610287575f92610253575b50811561006d575f8091610161610313565b60405163a9059cbb60e01b602082019081526001600160a01b03909216602482015260448082018790528152839061019a606482610292565b51925af16101a66102e4565b90159081156101f8575b506101e9576020917f542ffabdd5320a08598fbaa483210c5e34df4cfbd7f2541470a88d43c640311483604051848152a2604051908152f35b633c9fd93960e21b5f5260045ffd5b805180151592508261020d575b5050836101b0565b9091506020811491821592610226575b50508380610205565b60019250602001519060208110610242575b501415838061021d565b5f199060200360031b1b1684610238565b9091506020813d60201161027f575b8161026f60209383610292565b810103126100fd5751908361014f565b3d9150610262565b6040513d5f823e3d90fd5b601f909101601f19168101906001600160401b038211908210176102b557604052565b634e487b7160e01b5f52604160045260245ffd5b6001600160401b0381116102b557601f01601f191660200190565b3d1561030e573d906102f5826102c9565b916103036040519384610292565b82523d5f602084013e565b606090565b303b602c1981019081116103c55761034361032d826102c9565b9161033b6040519384610292565b8083526102c9565b602082019190601f19013683378051602d83303c60148151036103b6575190516001600160601b03198116919060148210610396575b505060601c90811561038757565b636347e7c160e11b5f5260045ffd5b6001600160601b031960149290920360031b82901b161690505f80610379565b630a7c68f560e31b5f5260045ffd5b634e487b7160e01b5f52601160045260245ffdfeb5d7700fb0cf415158b8db7cc7c39f0eab16a825c92e221404b4c8bb099b4bbba26469706673582212203d9daa4702cc3712ae3c07321ad41c8fd304e6a7e313a6f2e9fbc41c4d93b8aa64736f6c63430008230033","linkReferences":{}},"methodIdentifiers":{"collectERC20(address)":"1803977a","vault()":"fbfa77cf"},"id":24}