{"abi":[{"type":"constructor","inputs":[{"name":"vaultSlotTemplate_","type":"address","internalType":"address"}],"stateMutability":"nonpayable"},{"type":"function","name":"deployVaultSlot","inputs":[{"name":"vault","type":"address","internalType":"address payable"},{"name":"salt","type":"bytes32","internalType":"bytes32"}],"outputs":[{"name":"vaultSlot","type":"address","internalType":"address"}],"stateMutability":"nonpayable"},{"type":"function","name":"predictVaultSlot","inputs":[{"name":"vault","type":"address","internalType":"address payable"},{"name":"salt","type":"bytes32","internalType":"bytes32"}],"outputs":[{"name":"","type":"address","internalType":"address"}],"stateMutability":"view"},{"type":"function","name":"vaultSlotTemplate","inputs":[],"outputs":[{"name":"","type":"address","internalType":"address"}],"stateMutability":"view"},{"type":"event","name":"XcashVaultSlotDeployed","inputs":[{"name":"vaultSlot","type":"address","indexed":true,"internalType":"address"},{"name":"vault","type":"address","indexed":true,"internalType":"address"},{"name":"salt","type":"bytes32","indexed":true,"internalType":"bytes32"}],"anonymous":false},{"type":"error","name":"CloneArgumentsTooLong","inputs":[]},{"type":"error","name":"Create2EmptyBytecode","inputs":[]},{"type":"error","name":"FailedDeployment","inputs":[]},{"type":"error","name":"InsufficientBalance","inputs":[{"name":"balance","type":"uint256","internalType":"uint256"},{"name":"needed","type":"uint256","internalType":"uint256"}]},{"type":"error","name":"InvalidVaultSlotTemplate","inputs":[]},{"type":"error","name":"ZeroVault","inputs":[]}],"bytecode":{"object":"0x60a06040523461009257610b806020813803918261001c81610097565b93849283398101031261009257516001600160a01b038116810361009257803f61059461004b60208201610097565b81815260208101916105ec8339519020036100815760805260405161051990816100d38239608051818181607801526101da0152f35b630226e88160e21b60005260046000fd5b600080fd5b6040519190601f01601f191682016001600160401b038111838210176100bc57604052565b634e487b7160e01b600052604160045260246000fdfe6080604052600436101561001257600080fd5b60003560e01c80632b59363e146101fe5780632e802b1f1461018f57637b8ef4f31461003d57600080fd5b3461018a5761004b36610277565b9073ffffffffffffffffffffffffffffffffffffffff81169081156101605761007661009c91610338565b7f0000000000000000000000000000000000000000000000000000000000000000610378565b805115610136578281602073ffffffffffffffffffffffffffffffffffffffff935191016000f51680156100fb5760209260405192827f36ed5437aaaf529d3ea60919a09c88ad91c661b5ee3c773497513c1c4fd2af4d600080a48152f35b3d61012a577fb06ebf3d0000000000000000000000000000000000000000000000000000000060005260046000fd5b6040513d6000823e3d90fd5b7f4ca249dc0000000000000000000000000000000000000000000000000000000060005260046000fd5b7fc68fcf820000000000000000000000000000000000000000000000000000000060005260046000fd5b600080fd5b3461018a5760007ffffffffffffffffffffffffffffffffffffffffffffffffffffffffffffffffc36011261018a57602060405173ffffffffffffffffffffffffffffffffffffffff7f0000000000000000000000000000000000000000000000000000000000000000168152f35b3461018a5761020c36610277565b9073ffffffffffffffffffffffffffffffffffffffff811615610160576055600b60209361025161007673ffffffffffffffffffffffffffffffffffffffff95610338565b85815191012090604051916040830152858201523081520160ff81532016604051908152f35b7ffffffffffffffffffffffffffffffffffffffffffffffffffffffffffffffffc604091011261018a5760043573ffffffffffffffffffffffffffffffffffffffff8116810361018a579060243590565b90601f7fffffffffffffffffffffffffffffffffffffffffffffffffffffffffffffffe0910116810190811067ffffffffffffffff82111761030957604052565b7f4e487b7100000000000000000000000000000000000000000000000000000000600052604160045260246000fd5b7fffffffffffffffffffffffffffffffffffffffff0000000000000000000000006040519160601b166020820152601481526103756034826102c8565b90565b90615fd38151116104ef57805191602d83018093116104c0577fffffffffffffffffffffffffffffffffffffffff000000000000000000000000907fffff000000000000000000000000000000000000000000000000000000000000604051947f6100000000000000000000000000000000000000000000000000000000000000602087015260f01b1660218501527f3d81600a3d39f3363d3d373d3d3d363d73000000000000000000000000000000602385015260601b1660348301527f5af43d82803e903d91602b57fd5bf3000000000000000000000000000000000060488301528181519160005b8381106104a857505080610375926057920160008382015203017fffffffffffffffffffffffffffffffffffffffffffffffffffffffffffffffe081018352826102c8565b60208282018101516057878401015285935001610463565b7f4e487b7100000000000000000000000000000000000000000000000000000000600052601160045260246000fd5b7f942890540000000000000000000000000000000000000000000000000000000060005260046000fd60808060405260043610156100d7575b50361561001b57600080fd5b34156100ad576040513481527f4487f6d368546870956d80d81e8c5b42062dda412d9d9f9bf2d5a1cd2dc1bb7960203392a260008080803473ffffffffffffffffffffffffffffffffffffffff610070610456565b165af161007b610426565b501561008357005b7f096dc0e10000000000000000000000000000000000000000000000000000000060005260046000fd5b7f1f2a20050000000000000000000000000000000000000000000000000000000060005260046000fd5b60003560e01c90816306ec16f814610156575063fbfa77cf146100fa573861000f565b346101515760007ffffffffffffffffffffffffffffffffffffffffffffffffffffffffffffffffc360112610151576020610133610456565b73ffffffffffffffffffffffffffffffffffffffff60405191168152f35b600080fd5b346101515760207ffffffffffffffffffffffffffffffffffffffffffffffffffffffffffffffffc360112610151576004359073ffffffffffffffffffffffffffffffffffffffff8216918281036101515782610205575050504780156100ad57600080808093817f585fb2e91ab2ff6f2d3a7377e4ec52a02413c430a7df78e2be5cd94152b0cfb96020604051848152a273ffffffffffffffffffffffffffffffffffffffff610070610456565b7f70a08231000000000000000000000000000000000000000000000000000000008252306004830152602082602481865afa91821561037057600092610339575b5081156100ad5760009283809361025b610456565b927f585fb2e91ab2ff6f2d3a7377e4ec52a02413c430a7df78e2be5cd94152b0cfb96020604051848152a26040519073ffffffffffffffffffffffffffffffffffffffff60208301947fa9059cbb0000000000000000000000000000000000000000000000000000000086521660248301526044820152604481526102e160648261037c565b51925af16102ed610426565b9015908115610328575b506102fe57005b7ff27f64e40000000000000000000000000000000000000000000000000000000060005260046000fd5b610332915061056e565b15816102f7565b90916020823d602011610368575b816103546020938361037c565b810103126103655750519083610246565b80fd5b3d9150610347565b6040513d6000823e3d90fd5b90601f7fffffffffffffffffffffffffffffffffffffffffffffffffffffffffffffffe0910116810190811067ffffffffffffffff8211176103bd57604052565b7f4e487b7100000000000000000000000000000000000000000000000000000000600052604160045260246000fd5b67ffffffffffffffff81116103bd57601f017fffffffffffffffffffffffffffffffffffffffffffffffffffffffffffffffe01660200190565b3d15610451573d90610437826103ec565b91610445604051938461037c565b82523d6000602084013e565b606090565b303b7fffffffffffffffffffffffffffffffffffffffffffffffffffffffffffffffd3810190811161053f5760146104a6610490836103ec565b9261049e604051948561037c565b8084526103ec565b917fffffffffffffffffffffffffffffffffffffffffffffffffffffffffffffffe06020820193013684378051602d84303c5103610515575160601c9081156104eb57565b7fc68fcf820000000000000000000000000000000000000000000000000000000060005260046000fd5b7f53e347a80000000000000000000000000000000000000000000000000000000060005260046000fd5b7f4e487b7100000000000000000000000000000000000000000000000000000000600052601160045260246000fd5b8051801561058d57602003610587576020015160011490565b50600090565b505060019056","linkReferences":{}},"methodIdentifiers":{"deployVaultSlot(address,bytes32)":"7b8ef4f3","predictVaultSlot(address,bytes32)":"2b59363e","vaultSlotTemplate()":"2e802b1f"},"id":25}